{
    "contractName": "Whitelist",
    "abi": [
        {
            "constant": false,
            "inputs": [
                {
                    "name": "user",
                    "type": "address"
                }
            ],
            "name": "addAddress",
            "outputs": [],
            "payable": false,
            "stateMutability": "nonpayable",
            "type": "function"
        },
        {
            "constant": false,
            "inputs": [
                {
                    "name": "user",
                    "type": "address"
                }
            ],
            "name": "whitelistAddress",
            "outputs": [],
            "payable": true,
            "stateMutability": "nonpayable",
            "type": "function"
        },
        {
            "constant": true,
            "inputs": [
                {
                    "name": "",
                    "type": "address"
                }
            ],
            "name": "owner",
            "outputs": [
                {
                    "name": "",
                    "type": "address"
                }
            ],
            "payable": false,
            "stateMutability": "view",
            "type": "function"
        },
        {
            "constant": true,
            "inputs": [
                {
                    "name": "",
                    "type": "address"
                }
            ],
            "name": "userAddr",
            "outputs": [
                {
                    "name": "",
                    "type": "bool"
                }
            ],
            "payable": false,
            "stateMutability": "view",
            "type": "function"
        },
        {
            "inputs": [],
            "payable": false,
            "stateMutability": "nonpayable",
            "type": "constructor"
        }
    ],
    "bytecode": "0x6060604052336000806101000a81548173ffffffffffffffffffffffffffffffffffffffff021916908373ffffffffffffffffffffffffffffffffffffffff160217905550610300806100536000396000f300606060405260043610610062576000357c0100000000000000000000000000000000000000000000000000000000900463ffffffff16806338eada1c1461006757806341566585146100a05780638da5cb5b146100d9578063c7a8bbe71461012e575b600080fd5b341561007257600080fd5b61009e600480803573ffffffffffffffffffffffffffffffffffffffff1690602001909190505061017f565b005b34156100ab57600080fd5b6100d7600480803573ffffffffffffffffffffffffffffffffffffffff169060200190919050506101da565b005b34156100e457600080fd5b6100ec61028f565b604051808273ffffffffffffffffffffffffffffffffffffffff1673ffffffffffffffffffffffffffffffffffffffff16815260200191505060405180910390f35b341561013957600080fd5b610165600480803573ffffffffffffffffffffffffffffffffffffffff169060200190919050506102b4565b604051808215151515815260200191505060405180910390f35b6000600160008373ffffffffffffffffffffffffffffffffffffffff1673ffffffffffffffffffffffffffffffffffffffff16815260200190815260200160002060006101000a81548160ff02191690831515021790555050565b6000809054906101000a900473ffffffffffffffffffffffffffffffffffffffff1673ffffffffffffffffffffffffffffffffffffffff163373ffffffffffffffffffffffffffffffffffffffff1614151561023557600080fd5b60018060008373ffffffffffffffffffffffffffffffffffffffff1673ffffffffffffffffffffffffffffffffffffffff16815260200190815260200160002060006101000a81548160ff02191690831515021790555050565b6000809054906101000a900473ffffffffffffffffffffffffffffffffffffffff1681565b60016020528060005260406000206000915054906101000a900460ff16815600a165627a7a7230582023833f3303d1ab9de96d152ae6134724fd875217df1308dd29a850b895e3c0d30029",
    "source": "pragma solidity ^0.4.17;\r\ncontract Owned {\r\n    address public owner;\r\n    function   Owned() internal{\r\n        owner = msg.sender;\r\n    }\r\n    modifier onlyOwner() {\r\n        require(msg.sender == owner);\r\n        _;\r\n    }\r\n}\r\ncontract Whitelist is Owned {\r\n    mapping (address => bool) public userAddr;\r\n    \r\n    function  whitelistAddress (address user) external onlyOwner {\r\n        userAddr[user] = true;\r\n    }\r\n    function  addAddress (address user) external{\r\n        userAddr[user] = false;\r\n    }\r\n}",
    "sourcePath": "D:\\UpWork\\whiteList\\telegrambot\\whiteListContracts\\contracts\\Whitelist.sol",
    "compiler": {
        "name": "solc",
        "version": "0.4.18+commit.9cf6e910.Emscripten.clang"
    },
    "schemaVersion": "1.0.1",
    "updatedAt": "2017-11-30T08:51:57.728Z"
}